:020000040000fa
:080000000002040000000000f2
:020000040000fa
:040008006c04000084
:020000040000fa
:04000c006c04000080
:020000040000fa
:040010006c0400007c
:020000040000fa
:040014006c04000078
:020000040000fa
:040018006c04000074
:020000040000fa
:04001c006c04000070
:020000040000fa
:040020006c0400006c
:020000040000fa
:040024006c04000068
:020000040000fa
:040028006c04000064
:020000040000fa
:04002c006c04000060
:020000040000fa
:040030006c0400005c
:020000040000fa
:04003400d8020000ee
:020000040000fa
:040038006c04000054
:020000040000fa
:04003c006c04000050
:020000040000fa
:040040006c0400004c
:020000040000fa
:040044006c04000048
:020000040000fa
:040048006c04000044
:020000040000fa
:04004c006c04000040
:020000040000fa
:040050006c0400003c
:020000040000fa
:0400540004030000a1
:020000040000fa
:040058006c04000034
:020000040000fa
:04005c006c04000030
:020000040000fa
:040060006c0400002c
:020000040000fa
:040064006c04000028
:020000040000fa
:040068006c04000024
:020000040000fa
:04006c006c04000020
:020000040000fa
:040070006c0400001c
:020000040000fa
:040074006c04000018
:020000040000fa
:040078006c04000014
:020000040000fa
:04007c006c04000010
:020000040000fa
:040080006c0400000c
:020000040000fa
:040084006c04000008
:020000040000fa
:040088006c04000004
:020000040000fa
:04008c006c04000000
:020000040000fa
:040090006c040000fc
:020000040000fa
:040094006c040000f8
:020000040000fa
:040098006c040000f4
:020000040000fa
:04009c006c040000f0
:020000040000fa
:0400a0006c040000ec
:020000040000fa
:0400a4006c040000e8
:020000040000fa
:0400a8006c040000e4
:020000040000fa
:0400ac006c040000e0
:020000040000fa
:0400b0006c040000dc
:020000040000fa
:0400b4006c040000d8
:020000040000fa
:0400b8006c040000d4
:020000040000fa
:0400bc006c040000d0
:020000040000fa
:0400c0006c040000cc
:020000040000fa
:0400c4006c040000c8
:020000040000fa
:0400c8006c040000c4
:020000040000fa
:0400cc006c040000c0
:020000040000fa
:0400d0006c040000bc
:020000040000fa
:0400d4006c040000b8
:020000040000fa
:0400d8006c040000b4
:020000040000fa
:0400dc006c040000b0
:020000040000fa
:0400e0006c040000ac
:020000040000fa
:0400e4006c040000a8
:020000040000fa
:0400e8006c040000a4
:020000040000fa
:0400ec006c040000a0
:020000040000fa
:0400f0006c0400009c
:020000040000fa
:0400f4006c04000098
:020000040000fa
:0400f8006c04000094
:020000040000fa
:0400fc006c04000090
:020000040000fa
:040100006c0400008b
:020000040000fa
:040104006c04000087
:020000040000fa
:040108006c04000083
:020000040000fa
:04010c006c0400007f
:020000040000fa
:040110006c0400007b
:020000040000fa
:040114006c04000077
:020000040000fa
:040118006c04000073
:020000040000fa
:04011c006c0400006f
:020000040000fa
:040120006c0400006b
:020000040000fa
:040124006c04000067
:020000040000fa
:040128006c04000063
:020000040000fa
:04012c006c0400005f
:020000040000fa
:040130006c0400005b
:020000040000fa
:040134006c04000057
:020000040000fa
:040138006c04000053
:020000040000fa
:04013c006c0400004f
:020000040000fa
:040140006c0400004b
:020000040000fa
:040144006c04000047
:020000040000fa
:040148006c04000043
:020000040000fa
:04014c006c0400003f
:020000040000fa
:040150006c0400003b
:020000040000fa
:040154006c04000037
:020000040000fa
:040158006c04000033
:020000040000fa
:04015c006c0400002f
:020000040000fa
:040160006c0400002b
:020000040000fa
:040164006c04000027
:020000040000fa
:040208006c04000082
:020000040000fa
:04020c006c0400007e
:020000040000fa
:040210006c0400007a
:020000040000fa
:040214006c04000076
:020000040000fa
:040218006c04000072
:020000040000fa
:04021c006c0400006e
:020000040000fa
:040220006c0400006a
:020000040000fa
:040224006c04000066
:020000040000fa
:040228006c04000062
:020000040000fa
:04022c006c0400005e
:020000040000fa
:040230006c0400005a
:020000040000fa
:040234006c04000056
:020000040000fa
:040238006c04000052
:020000040000fa
:04023c006c0400004e
:020000040000fa
:040240006c0400004a
:020000040000fa
:040244006c04000046
:020000040000fa
:040248006c04000042
:020000040000fa
:04024c006c0400003e
:020000040000fa
:040250006c0400003a
:020000040000fa
:040254006c04000036
:020000040000fa
:040258006c04000032
:020000040000fa
:04025c006c0400002e
:020000040000fa
:040260006c0400002a
:020000040000fa
:040264006c04000026
:020000040000fa
:040268006c04000022
:020000040000fa
:04026c006c0400001e
:020000040000fa
:040270006c0400001a
:020000040000fa
:040274006c04000016
:020000040000fa
:040278006c04000012
:020000040000fa
:04027c006c0400000e
:020000040000fa
:040280006c0400000a
:020000040000fa
:040284006c04000006
:020000040000fa
:040288006c04000002
:020000040000fa
:04028c006c040000fe
:020000040000fa
:040290006c040000fa
:020000040000fa
:040294006c040000f6
:020000040000fa
:040298006c040000f2
:020000040000fa
:04029c006c040000ee
:020000040000fa
:0402a0006c040000ea
:020000040000fa
:0402a4006c040000e6
:020000040000fa
:0402a8006c040000e2
:020000040000fa
:0402ac006c040000de
:020000040000fa
:0402b0006c040000da
:020000040000fa
:0402b4006c040000d6
:020000040000fa
:0402b8006c040000d2
:020000040000fa
:0402bc006c040000ce
:020000040000fa
:0402c0006c040000ca
:020000040000fa
:0402c4006c040000c6
:020000040000fa
:0402c8006c040000c2
:020000040000fa
:0402cc006c040000be
:020000040000fa
:0402d0006c040000ba
:020000040000fa
:0402d4006c040000b6
:020000040000fa
:0402d8006c040000b2
:020000040000fa
:0402dc006c040000ae
:020000040000fa
:0402e0006c040000aa
:020000040000fa
:0402e4006c040000a6
:020000040000fa
:0402e8006c040000a2
:020000040000fa
:0402ec006c0400009e
:020000040000fa
:0402f0006c0400009a
:020000040000fa
:0402f4006c04000096
:020000040000fa
:0402f8006c04000092
:020000040000fa
:0402fc006c0400008e
:020000040000fa
:040300006c04000089
:020000040000fa
:040304006c04000085
:020000040000fa
:040308006c04000081
:020000040000fa
:04030c006c0400007d
:020000040000fa
:040310006c04000079
:020000040000fa
:040314006c04000075
:020000040000fa
:040318006c04000071
:020000040000fa
:04031c006c0400006d
:020000040000fa
:040320006c04000069
:020000040000fa
:040324006c04000065
:020000040000fa
:040328006c04000061
:020000040000fa
:04032c006c0400005d
:020000040000fa
:040330006c04000059
:020000040000fa
:040334006c04000055
:020000040000fa
:040338006c04000051
:020000040000fa
:04033c006c0400004d
:020000040000fa
:040340006c04000049
:020000040000fa
:040344006c04000045
:020000040000fa
:040348006c04000041
:020000040000fa
:04034c006c0400003d
:020000040000fa
:040350006c04000039
:020000040000fa
:040354006c04000035
:020000040000fa
:040358006c04000031
:020000040000fa
:04035c006c0400002d
:020000040000fa
:040360006c04000029
:020000040000fa
:040364006c04000025
:020000040000fa
:10040000ef9120000e7f24000e0188000000000004
:10041000000020000000e000020032000001200087
:100420002002880014000700a20107000000e0007d
:1004300003003a00009b2100010020000200370069
:100440000000200001002000810f70000100320038
:1004500014000700000020000000e000020032004d
:1004600000000200000000007c17020000000000f5
:100470000040da000000fe004440a90000242000f3
:100480000000e0000300320000002000a00188000e
:100490004440a800000006008a1f78008b1f7800e7
:1004a0000000060091018800800478000000eb0045
:1004b0001a003700e284440032a0b4009905ba0063
:1004c000e284440032a0b4009906ba00e2844400f9
:1004d00032a0b4000006eb00476fde00fd07b2005b
:1004e000636ce10003003a00ebff07000000eb0043
:1004f0000a003700606ce10004003a00005deb0088
:100500008b05e900fdff3e00040037006168e10053
:10051000010032000086eb000b00070019c7ba008b
:100520001905ba000e04e00003003a000a00e000da
:10053000e0ff3a0000000600fe07b2009e018800be
:100540008a047800f5ff3700395dba008b05e900b1
:100550000c003200295dba008b05e900080032006a
:100560000c00e00003003a00e284440032a0b40032
:10057000f5ff370019ddba008b05e900faff3a00f4
:100580008904e800e184440032a0b40000000600c1
:100590004407040000000000000004000000000008
:1005a000020a0400000000002e0a040000000000ff
:1005b000809fbe00821f78000000fa008460a900be
:1005c000201680006100600000f0a7000000ea0033
:1005d0000000e9004f00de00004078000080fb00d2
:1005e0006100600022168000e1ff2f0081006100a1
:1005f00001007000201688000080fa004f0178008a
:100600004f00be00004006003600f800809fbe008c
:10061000829fbe00849fbe00869fbe000e00fa002f
:100620008560a9009560a9009a0a070005e1a90064
:1006300030002000801f78000080eb00801f7800d1
:1006400070572900801f78007c030700e687570059
:10065000200880004400de00634060008080fb00d2
:1006600010088000811f7800801f7800d05a290070
:10067000801f780071030700e6875700105e29008d
:10068000801f78006d0307008f87e90060622900f2
:10069000801f7800690307008f87e900b065290093
:1006a000801f7800650307008f87e90060672900d5
:1006b000801f7800610307008f87e9000069290027
:1006c000801f78005d0307008f87e900906a29008a
:1006d000801f7800590307008f87e900206c2900ec
:1006e000801f7800550307008f87e9006000b8007d
:1006f000008fbe002900370020722900801f78007b
:100700004e0307008f87e900680047005100200072
:100710006f0a0700cf80de00008fbe006800470030
:10072000a20020008000eb0087020700200798004d
:10073000310798002e019000be019000f0ff2f00bd
:1007400001002000800f5100818f59000b003e00f6
:100750001e00be00e00f5000e08f58000300320082
:100760002e009000100888000c00370010002000b8
:1007700001002000008fbe00080037000080eb0061
:10078000801f780090722900801f78002b030700db
:10079000e48757006000b800008fbe001e00be0056
:1007a000e00f5000e08f5800d3ff32006000b80027
:1007b000008fbe0032003700c0752900801f78000e
:1007c0001e0307008f87e900680047001100200022
:1007d0003f0a0700cf80de00008fbe0068004700a0
:1007e000a20020008000eb005702070020079800bd
:1007f000310798002e019000be01900030002000cb
:1008000001002000800f5100818f590014003e002c
:100810001e00be00e00f5000e08f58000c003200b8
:100820002e00900000407800634060000080fb00d4
:10083000630060004400dd0022088000f1fc2f000e
:100840008100610001007000200888000c00370062
:100850001000200001002000008fbe0008003700bb
:1008600030002000801f780090722900801f7800df
:10087000f2020700e48757006000b800008fbe0056
:100880001e00be00e00f5000e08f5800caff32008b
:10089000f0762900801f7800e80207008f87e900c2
:1008a00070542900801f7800e40207008f87e90058
:1008b0008560a9009560a80005e1a8000080fa0005
:1008c0004f03be004f02be004f01be004f00be00ee
:1008d0003600f900004006000040da000000fe008b
:1008e0000a00fa0011002000b1bf9f00c0bf9f00a6
:1008f0006a805700530507004fb897000080fa0040
:10090000000006000a00fa00e20f500034003e002a
:10091000b0488000e10f500003003200e20f5000a9
:1009200011003a000c003700032220000300e00011
:1009300001003a000040da002002e2000200350027
:100940002822ef0021e2a8002342ab000d003a006c
:100950002342a8000b003700032320000300e0001f
:1009600001003a000040da003002e20002003500e7
:100970003822ef0031e2a8003342ab0001003a0018
:100980003342a800820178000b0037003102fb00df
:10099000e10f500004003a002322ab00feff3a00b2
:1009a00024118800030037003322ab00feff3a0019
:1009b000a41188008301e9000300e000f3ff3a007e
:1009c000e10f500003003a002302ab00feff3200ab
:1009d0000b0037003302ab00feff32000800370087
:1009e00033002000b3bf9f00c0bf9f00d1bf9f0056
:1009f000e2bf9f006a805700140507006fb9970097
:100a0000020078000080fa00000006000a00fa00e8
:100a100051002000b1bf9f00c0bf9f006a805700f7
:100a20000c0507005fb897000080fa000000060080
:100a3000889fbe0080047800e04880000000e0004d
:100a400004003a000e0007000084eb000000e00004
:100a500008003500e84880000900e0000500320089
:100a600009004400060007000000e00001003d000e
:100a70000084eb00080078004f04be000000060070
:100a8000800078000100e00003003a000000200030
:100a9000e0488800000005000080eb000200200014
:100aa000828f500002003e00e14888000000eb0009
:100ab0000000060000000500889fbe008a1f780025
:100ac0000004be00c900900069009000808f5000b3
:100ad0000500390009007800570007008080eb000e
:100ae0000000e0001600350008457800490090003d
:100af00008587800c00498001900780000b8a300d6
:100b000004003a0000a8a30007003200ea4f540096
:100b100005003a00090078000d0007008080eb0016
:100b20000000e00006003a0000c02000190060004c
:100b30000200320049009000e00498008a80fb0027
:100b4000010078004f0578004f04be000000060049
:100b5000889fbe00000478000800e0000e003a0004
:100b60008004eb008800d0008087200061007800be
:100b70000000e00004003200f5ff07000000e00084
:100b800001003d008084eb000804e800e80f5400f9
:100b9000f4ff3a0025003700000022001800600032
:100ba0008004eb0021003200a80490000f00370001
:100bb00009015100384090000000fb0089007800d6
:100bc00050ff07000000e00007003c0028009000f4
:100bd0004004980060049800500c98001890a00001
:100be0008084eb00110037008084440048019000ad
:100bf000828f5400eeff39002800900040049800d6
:100c00009800780002c020000281600001003a00d4
:100c10003800900001e8a300020032006004980050
:100c200001003700500c98008004eb0009007800a8
:100c30004f04be0000000600889fbe008a1f780097
:100c400000047800c8009000680190000000eb00ec
:100c5000828f50003c0039001800780022002900e3
:100c600002016000e20f5100070032000120240061
:100c70000000e00001003d0001202000008c700019
:100c80000080eb0030003700020026000200600008
:100c9000820f500009003a0038009000808f500009
:100ca0000600390008007800a9ff070080007800de
:100cb0000080eb000100e00023003a0018057800f6
:100cc00000c020000000650018003a00a804900051
:100cd0006002200008004000808f540013003a009a
:100ce00000202000d8000700200498000000e00049
:100cf00005003a0029049800490498008904e80096
:100d000039049800080037000a60a0000a0c780037
:100d100040049800012020008080400031049800a9
:100d2000400c9800500c98000c0007002800900020
:100d300050049800380090006004980000002600dd
:100d4000180c70000000eb004f0578004f04be0047
:100d50000000060040742000e5003700881f78007e
:100d6000889120001804e00003003a00f9ff070012
:100d700020c0b300004c78004f047800000006004b
:100d8000889fbe00000478000800780070ff07000c
:100d90008004780000042000180060000200320087
:100da00028009000430007000000eb00200498009a
:100db000384090000004e000050035000000fb0012
:100dc000c7fe07000000e000010032008084eb0055
:100dd000181090000000e000080032000bff070030
:100de0000000e000010032008084eb001810900049
:100df000300007000000eb001014980000082000ed
:100e0000180060000f003200618720000000eb0036
:100e1000d10f140005003a00000040008187200037
:100e2000008040000008eb00030037000000e800ed
:100e3000e80f5000f6ff3a00080078001d00070098
:100e40000e003700000c780000c0eb003044980022
:100e50006002200008004000200498004004980030
:100e600050049800400c980060049800500c9800c2
:100e70007004980076004400000c98000900780087
:100e80004f04be0000000600889fbe008888200036
:100e9000f0045400480078000000e0000100320037
:100ea000b7ff0700890f5400faff3a004f04be0055
:100eb000000006000000e0002f003200c0017800b2
:100ec000e38f51002c0036000308a3002a003a00eb
:100ed000814880000100e00002003200810f5000d4
:100ee0000400310011009800804888001600370087
:100ef00082007800110190000200e0000200320040
:100f0000800f5100faff39001102780084824000fe
:100f1000850f500018003900808f520003003a00fe
:100f20008308420001007800070037000200e0005b
:100f30000300320083014000830f51000e0039008e
:100f40001200980090009800900090000100e000ce
:100f50000900320010014000828f500006003a0064
:100f6000e29020000009eb00100178001108410018
:100f7000910090001100980000000600889fbe00bc
:100f800000047800714880000100e0000200320097
:100f9000010078000d00370081488000009120009a
:100fa00004003700910f5400250036000180e8004e
:100fb000910090000100e000faff3a0010003700b5
:100fc000920f54001e0036000280e80010017800e5
:100fd0000200e000faff3a00110178008148800029
:100fe0000091200004003700910f540014003600d7
:100ff0000180e80091009000828f5000faff3a00d3
:10100000d9488000888f540001003100880478009e
:1010100009007800420007000000e00004003a00e8
:10102000888f5400050032008904d100f5ff370095
:10103000091878009fff0700d2ff37000000eb007f
:101040004f04be0000000600881f780063044000c3
:101050000800a1008000eb00800f54002100360042
:10106000e30f540001003e00480020000800780013
:10107000c2ff07008000eb000000e0001900320012
:10108000900078009101780064815100880f510030
:1010900003003100110190000208780007003700ba
:1010a0000881400002087800910190001301980027
:1010b00010017800110914008808780010017800e8
:1010c0000000eb000200e0000400320092019000fa
:1010d0000300e000010032000280e8007048880050
:1010e0008180e800010078004f04780000000600cd
:1010f000010020000100e000080032000100800033
:101100000100e000050032008100e90001008800d4
:10111000818040000200800000b1780000000600dd
:10112000800078000000eb000100e00005003400c2
:10113000010078003efe0700e10f400001003a0088
:101140000000eb0000000600ee874700889fbe000d
:101150008a9fbe008c9fbe008e1f7800f0b79f0054
:101160000106780082057800000478000805780000
:101170000a047800b84678000d00fb008c000700d8
:101180000000e000f9ff3a00d0c2b30080cf560063
:101190000300320000c0e90080cf560002003a0090
:1011a0000a05e80001003700804678000b00e000e7
:1011b00005003500e18f5500030032004002200099
:1011c000808f5500060034006044b8000c00e00039
:1011d000700032007fb09700000e78006d0037007d
:1011e0000b00e0000e003200f08f55001a003a00ac
:1011f00000c3b3009a4f100017003a001a40900045
:1012000081c7b300814f50000300320081c5b30095
:10121000814f500010003a000a85e8000e003700a8
:10122000ab00200000c3b3009a4f10000a003a0040
:101230001a40900081c7b300814f50000400320073
:101240008b00200081c5b300814f500002003a009e
:101250000a85e8000b0120000a00780000027800ef
:101260000400780001c3b300b0cf1000fbff3200d0
:10127000040778006044b800b4b79f000d00370041
:101280008188200081405000c1ef9f006159b90062
:101290000800be00130307004fea97000401fb009b
:1012a000cf91de00c8b79f00d9b79f00020440006d
:1012b000838448008e0278003e00fb0085bf9f00bb
:1012c000430007000b017800800078008088200030
:1012d000cc0007008fba97000000e000e8ff3a005a
:1012e0003fb29700850f550005003a006044b800f2
:1012f0000c00e00027003200ffb297002400370006
:1013000004825200d08a200060c07d000000fb00f3
:10131000000252001700330011003a004fe9970015
:101320000200fb00cf80de000000540081805c00e2
:10133000800f5400818f5c00090039006159b900a9
:1013400085bf9f00d40207008fba97004fb1970066
:10135000dfb19700820f5000838f580005003200e4
:1013600020022000904888000084eb008084eb007d
:1013700005003700d0c2b30080cf560002003a000b
:1013800060041400e0841c000c00e0000100320046
:10139000050e78000800be004f0778004f06be001b
:1013a0004f05be004f04be00ef00b1000000060074
:1013b0006900e100040035006d00e1000300340025
:1013c0000002b1000100320000000500100005001d
:1013d000800078001104b100030035009101b100d4
:1013e00001003c000050a00000000600a048800062
:1013f0000000e00001003200000001002091200008
:1014000000000600889fbe000004780001007800fc
:10141000820478008801780009017800110020001a
:1014200024000700890f5000010032000004eb0087
:10143000080078004f04be00000006000000fa001b
:10144000e88157004fb997008182200020a020003a
:10145000ac0307000080fa0000000600889fbe0071
:101460000004780001007800820478008801780088
:1014700009017800110020000e000700890f5000bc
:10148000010032000004eb00080078004f04be00a9
:10149000000006000000fa00e88157004fb99700ed
:1014a00081822000e0a22000960307000080fa005d
:1014b00000000600889fbe008a9fbe008c9fbe0071
:1014c0008e1f780000067800010478000200780082
:1014d000830478000881b900020778000200e00068
:1014e000420032000800e00041003200820578002e
:1014f000c900900069009000808f500004003900fe
:1015000009007800ccfd07000000e000290035004c
:1015100000402000190060000a0032000b01780032
:10152000a10020000c00780036000700800678003b
:101530000d00e00006003200610516000a85460035
:10154000040037000b0578008006eb00010037002f
:101550000b05780049009000e90090008080500061
:101560008a8f500002003100010578008006eb00f0
:101570000a0178008c0078002c0007008a8555004d
:10158000490090000a004000c00498000d00e000ef
:1015900004003200090078006dfd07000000e00043
:1015a00004003a000b00e000020032000a06460088
:1015b000cfff3700008020001900600002003200d9
:1015c0000900780062fd070000c0200019006000db
:1015d0000200320049009000e00498008b0557009b
:1015e000110009008885d800010037000000eb00d9
:1015f0004f0778004f06be004f05be004f04be00e7
:101600000000060003003700b0cf100005003200d4
:101610000201e900800178000200e000faff3a00d0
:10162000000005000300780000000600800178003b
:1016300002003700b15978000201e9000200e00021
:10164000fcff3a0000000600020037000304e0003f
:10165000060032000001780002007800b0417800f6
:1016600081cf5100f9ff3a00010037000001eb0083
:101670000200780000000600800078000101780078
:101680003104e000fdff3a000000510000000600b8
:10169000fc874700889fbe008a9fbe008c9fbe00cb
:1016a0008e1f78000006780080c5b30080cf500000
:1016b0000a0032007740400080cf50000a0032001c
:1016c0006940400080cf50000b003200308e200077
:1016d00080bf9f00ae0020000a003700228d20004e
:1016e00082bf9f0006003700338e200083bf9f001b
:1016f0008e00200003003700348e200084bf9f003e
:101700000e0120003c02be002c03be000605be00f8
:101710000404be0040c6b30080cf50000300320076
:101720006540400080cf50000b003a00e00f5200af
:10173000e08f5a00e00f5b00e08f5b0006003d0089
:101740006000b8006011b80004045000858458009f
:101750000605590087855900e80f5700040032003c
:1017600040002000f00f570038003a000100370019
:1017700030002000e00f5400e08f5c00e00f5d00bf
:10178000e08f5d0004003a00dc0890008d0120002d
:101790000100e000060032008e00e9008880600051
:1017a0008fba9700e5c07800f1ef9f007d0120001f
:1017b000800078008100e900050033008b05d1002e
:1017c0000a85d3008984d3000884d300f9ff370049
:1017d000089ebe000a96be00120037008d06e90082
:1017e0008e00e900848060000fb99700e2c17800a4
:1017f00082fd2f000f01410003f17e008000780080
:101800008100e900050033008783d1000683d300ff
:101810008582d3000482d300f9ff3700049ebe0006
:101820000696be003c02be002c03be00e00f520034
:10183000e08f5a00e00f5b00e08f5b008b0034000c
:101840000d00e000e5ff3c00880037002c609000b0
:1018500081c6b300814f50000b00320006003c00ef
:101860000004e00008003200e6c05000814f500044
:101870004e003a0004003700c1c6b300814f50004b
:101880004a003a00210037000800e00004003a0056
:101890005c0890008d0120000000e000060032008e
:1018a000110009000e84d8000fb99700e2c078003b
:1018b000f1ef9f007d012000110009000e84d80087
:1018c0000a003700110009000e04d8008d06e90057
:1018d0000e81b900020454008fb8970061417c006a
:1018e00081fd2f008f80400082f07e000004780090
:1018f0000800e000020032000d00e000f1ff3c00b3
:10190000cfc4de00614db90025003700e00f540060
:10191000e08f5c0004003a005c0890008d0120001c
:101920000000e000070032006171b9000800be004d
:10193000690107008fb99700e3417800f3ef9f003a
:101940007d0120006171b9000800be00520107004e
:101950000b0037006171b9000800be003f010700ad
:101960008d06e90000f1b900020454000fba970097
:10197000e4427c0084fd2f000f02420005f27e004d
:101980000004be00e00f5000e08f5800020032005b
:101990000d00e000efff3c004fcdde008a0578002f
:1019a000089ebe000a96be0030003700e00f5400cb
:1019b000e08f5c00e00f5d00e08f5d0004003a0006
:1019c0005c0890008d0120000000e000090032005a
:1019d0006172b900612bb9000800be000a01be00a7
:1019e000e60107000fba970064427800f4ef9f0009
:1019f0007d0120006172b900612bb9000800be00b2
:101a00000a01be00d60107000d0037006172b9005f
:101a1000612bb9000800be000a01be00db0107000f
:101a20008d06e90000f2b900040454008fba970053
:101a300065427c0085fd2f008f82420084f27e008b
:101a4000009ebe000296be003c04be002c05be00f7
:101a5000e00f5400e08f5c00e00f5d00e08f5d0060
:101a6000020034000d00e000e8ff3c00e80f5700e2
:101a700010003a000c1090000038a3000d00320056
:101a8000f78f560006003e0085fd2f008f82420032
:101a9000e5c07e0000c3b30080cf500005003200d7
:101aa0008d06e90002c3b30081fd2f008f80400046
:101ab00082f07e0078811600120e98006c00900073
:101ac00083fd2f008f8141008d804100d7fe0700ec
:101ad0001c089000dc089000810f500006003d00bb
:101ae00000805000000e98000c1090000040a100f3
:101af000001698000f0037000100e0000d003d00c7
:101b00008c109000f4806000f08f500009003a00c3
:101b10007c099000fc009000810051000c099000ad
:101b200082805000008050004240a9000100340033
:101b3000000e98004f0778004f06be004f05be000c
:101b40004f04be00cf01b100000006000400fa00ff
:101b5000889fbe008a9fbe008c1f7800000478001a
:101b600001067800f80d90007800900080855500ff
:101b70000808900080855500180890008085550061
:101b80002808900080855500380890008085550011
:101b900048089000808555000002220090bf9f00f9
:101ba00000032300a0bf9f00081090000028a3009e
:101bb00015003a000b00e000130034000b0578001c
:101bc0008a047800e20f5500010036002900200049
:101bd000c801900009017800ee805700580090007d
:101be00003000100500498000000e0008c00320067
:101bf0006808900009004000600c98000905550035
:101c00004240a900eeff3c00780190000200e00095
:101c10000c003400c80190008c007800580090003f
:101c200003000100500498008080eb000000e000f9
:101c30007c003200e80890007800900000804000ae
:101c4000600c9800880c90000900e000110034003e
:101c500009057800e28f5400010036002a002000b8
:101c6000c80190000a017800ec80570058009000ed
:101c700003000100500498000000e00068003200fa
:101c8000680890000a004000600c98008a845400a4
:101c9000edff3700180990000200e0000c0034004e
:101ca000c8019000e8009000580090000300010077
:101cb000500498008080eb000000e00059003200e2
:101cc000e80890001808900000804000600c980020
:101cd000a80c90000900e00011003400090578000c
:101ce000e28f5400010036002a002000c801900055
:101cf0000a017800ec8057005800900003000100b2
:101d0000500498000000e000450032006808900090
:101d10000a004000600c98008a845400edff3700f0
:101d2000380990000200e0000e003400e800900046
:101d30001808900080804000c80190005800900072
:101d400003000100500498008080eb000000e000d8
:101d500034003200e808900038089000008040000d
:101d6000600c9800c80c90000900e00011003400dd
:101d700009057800e28f5400010036002a00200097
:101d8000c80190000a017800ec80570058009000cc
:101d900003000100500498000000e0002000320021
:101da000680890000a004000600c98008a84540083
:101db000edff3700081090008000eb000028a30022
:101dc000180032000b00e000160034008b0478008d
:101dd00009057800e28f5400010036002a00200037
:101de000c80190000a017800ee805700580090006a
:101df00003000100500498000000e00008003200d9
:101e0000680890000a004000600c98008a84540022
:101e10004240a900eeff3c008000eb0001003700cb
:101e20008080eb00010078004f0678004f05be006f
:101e30004f04be000080fa00000006000108780090
:101e40000000060000c0da000000060000c0da0052
:101e50000000060000c0da0000000600839f680052
:101e60000100e00002003d0060001000e08018006a
:101e70000300e00002003d0060011100e081190054
:101e8000050007004f00e00002003b00600010006a
:101e9000e0801800000006006022b8000602200062
:101ea0000000d0008180d2000482d2008582d2005e
:101eb0000000a0000202520083825a000300310099
:101ec0000202420083824a000000a1000603e900ea
:101ed000f3ff3a0000000600efff07000400be0019
:101ee00000000600020ab900001bb9000200b80099
:101ef000810042008100430000000600889fbe0070
:101f00008a9fbe0030044200b0844a0030054b0076
:101f100090854b006000b1000898be000a90be009a
:101f20000440e10005c8e10006d0e10007d8e10067
:101f300002003100680040001008e8004f05be00b4
:101f40004f04be0000000600889fbe008a9fbe00ae
:101f50003004be002005be000418540005985c0043
:101f600006185d0007985d00110020000440e100a4
:101f700005c8e10006d0e10007d8e1000100390002
:101f80008000eb00108810004f05be004f04be001b
:101f9000000006001200fa00889fbe008a9fbe0063
:101fa0008c9fbe00e0b79f00f1b79f0082bf9f00eb
:101fb00093bf9f000605be000404be000000eb00b6
:101fc000d0b79f00c0b79f00b0b79f00a0b79f00d9
:101fd00090b79f000006eb005fb19700cfb097006d
:101fe000820141003fb097000200e00004003d0084
:101ff000370007007e805700c0ff0700030037004e
:10200000330007007e805700cfff0700dfb6970040
:102010000d00e0000c0035006fb29700ffb2970092
:102020000fbb97009fbb970010002000010020000d
:102030006011b80000027200818272000203730016
:10204000838373001b0007000c06e80001042000d6
:10205000810f5600e0ff3a000d00e00004003d0053
:102060000802be000a03be007e805700a3ff0700df
:102070005fa897000000e00005003a001fb297003b
:10208000afb297003fb39700cfb3970009000700a6
:102090006fb09700ffb097000fb997009fb99700f6
:1020a0004f06be004f05be004f04be000080fa0080
:1020b000000006000100070000000600a4b79f0012
:1020c000b5b79f00c6b79f00d7b79f0000000600b6
:1020d0004f09de0082817100b3b79f004f01de001f
:1020e0008180400082807000a1b79f008fb0970070
:1020f0004f09de00000040000200700090b79f0012
:102100007fa897004f01de00818040008280700030
:1021100081b79f000d0007004f3ade00000040002d
:1021200004007000f0af9f000800070004024200a6
:1021300085824a0006034b0087834b00dfff0700c0
:102140000802be000a03be00000006002fb297007e
:10215000bfb297004fb39700dfb3970000000600af
:10216000881f780018002000881f780089ff07006a
:102170008f87e9004f04780000000600801feb0005
:1021800084ff07008f87e90000000600889fbe00db
:102190008a9fbe00e00f5000e08f5800e00f59000a
:1021a000e08f59000c003d006044b8006055b80055
:1021b0000000540081805c0002015d0083815d00ad
:1021c000180020001500070008003d001800070057
:1021d0000004eb00050037000004eb000f000700cf
:1021e00002003d001200070018002000dcff07007d
:1021f0000800e000060032006022b8006033b8003a
:102200000000520081805a0002015b0083815b0064
:102210004f05be004f04be0000000600e00f520054
:10222000e08f5a00e00f5b00e08f5b0000000600cb
:102230006044b8006055b8000402540085825c0018
:1022400006035d0087835d0000000600889fbe00d6
:102250008a9fbe008c1f7800e00f5000e08f58006e
:10226000e00f5900e08f59000d003d006044b800b8
:102270006055b8000000540081805c0002015d00e0
:1022800083815d001c0020000820e10009a8e10016
:102290000ab0e1000bb8e1000d003d000800370076
:1022a0000006eb00e00f5200e08f5a00e00f5b00e9
:1022b000e08f5b0006003d006044b8006055b80048
:1022c0000402540085825c0006035d0087835d0084
:1022d000aaff07000c00e000060032006022b800f0
:1022e0006033b8000000520081805a0002015b0098
:1022f00083815b004f0678004f05be004f04be008f
:10230000000006006200fa00889fbe008a1f780065
:1023100000057800810478000204780083007800ca
:1023200080f92f000f004000c4fe07009a979f001d
:10233000a9979f000000eb00b09f9f001885fb004d
:102340008a04fb000a05ea004f55de005002200017
:10235000808f54000d003200e10f55000b003a0051
:102360000a017800880078002f9097009f919700cd
:1023700003000100a0979f000000e0008e003200e3
:102380003f9897000000e800b09f9f000a044400b7
:1023900050022000808f5400040032000900e00049
:1023a000e6ff3a003f989700840037000000eb00fa
:1023b000909f9f00809f9f00f0979f00e0979f0055
:1023c000d0979f00c0979f000700370081902000a2
:1023d0000100500000004000c18f20006100780023
:1023e000df98970001007000d09f9f00880478005c
:1023f00009047800384578008a00fb0080902000ae
:1024000091fc07000000e000f0ff3a00a1c2b30019
:10241000814f55000e003a00cf8897000180e900f7
:10242000c08f9f0010007800c09f9f000000e00058
:1024300005003d000000ea00c09f9f005f989700e4
:102440000020a000d09f9f000904e8000f00370083
:10245000c09f9f000000eb0005003700f2ff27003f
:10246000820f5000020032006a01b9000280400071
:102470000904780088047800b900fb000103b1006a
:10248000e98f5000f5ff3600c09f9f00e0c2b30007
:10249000984f1000020032000080eb001900370056
:1024a000a0c2b300d84f100007003a00cf889700b1
:1024b0000180e900c08f9f0010007800a09f9f005e
:1024c0000804e800100037000000eb00a09f9f0008
:1024d0008800780005003700f3ff2700830f5000c5
:1024e000020032006a02b9000400410001047800d1
:1024f000880078003101fb000203b100e90f5100b0
:10250000f5ff3600a09f9f00984478008900fb00eb
:10251000408f20004cfc07000000e0000200320069
:102520000804e800010037008044eb00c97f9f00e9
:1025300080c6b30080cf540004003a0098cf140046
:102540000a003a006640500006003700c0c6b300db
:1025500080cf540005003a0098cf140003003a00e1
:1025600065404000c07f9f000804e8001801fb00a0
:10257000e3fb2f008f81410081f92f008f80400005
:10258000a0f92f000f004000100007000000e0003d
:1025900009003a00e1fb2f008f804000a0f92f00d6
:1025a0000f00400069fd07000000e0000200350058
:1025b0000804e80061ff37000080eb004f05780059
:1025c0004f04be000080fa0000000600889fbe0095
:1025d0008a1f780000047800e0c6b300804f5100e5
:1025e000c100320015003c006b405000804f51008c
:1025f000240032000a003c0070405000804f51001f
:10260000fa00320065404000804f510068003200ff
:1026100050c2b300804f51000b013a000701370050
:1026200040c6b300804f51001b003200654040009f
:10263000804f510004013a001700370030c7b30043
:10264000804f5100e900320007003c006440500018
:10265000804f5100560032000040e800804f51008a
:10266000f9003a00d300370050c7b300804f510043
:102670004f00320063404000804f5100f2003a00aa
:102680004b0037001181e900820878007800900043
:1026900012417800ea00370028609000c4c6b300f9
:1026a000844f500007003a00110278006400520085
:1026b000800878001002be004fabde008603780071
:1026c0001100370014c7b300844f500003003200dc
:1026d000a4c6b300844f500006003a0011027800ef
:1026e00068005200800878003002be002003be005f
:1026f000050037001180e90080087800100278009a
:10270000cfa2de00612bb900049cbe000694be007f
:102710002860900081c6b300814f50000d00320048
:1027200021c6b300814f500004003a000402fb00b0
:10273000cfa2de00612bb9000800370041c7b3000b
:10274000814f500003003200e6c04000814f50002e
:1027500004003a00cfa2de00612bb900049cbe0049
:102760000694be003802be002803be007800900028
:10277000d1c2b300e00f5200e08f5a00e00f5b00bf
:10278000e08f5b0008003500881090000118a3005e
:1027900002003200b1c2b300030037000108a300f9
:1027a0004c00320001c2b30081717800470037004d
:1027b00028609000c4c6b300844f500006003a0061
:1027c0001102780064005200800878001002be00f8
:1027d0006033b8001100370014c7b300844f5000b5
:1027e00003003200a4c6b300844f500006003a0034
:1027f0001102780068005200800878003002be00a4
:102800002003be00050037001180e9008008780031
:10281000100278008002eb006033b800049cbe0018
:102820000694be002860900081c6b300814f50001e
:102830000d00320021c6b300814f500004003a0061
:102840000482fb008002eb006033b8000800370010
:1028500041c7b300814f500003003200e6c0400082
:10286000814f500004003a008002eb006033b80052
:10287000049cbe000694be00081090000038a3001f
:10288000140032003802be002803be00e00f5200e0
:10289000e08f5a00e00f5b00e08f5b000d0032001c
:1028a00080c7b300804f51000300320080c5b300e1
:1028b000804f510007003a007800900001c3b30038
:1028c000817178000000e800827178000000e80063
:1028d00070049800780090008081410063049800a3
:1028e000824078003e00370028619000c3c6b300e4
:1028f0001180e900834f5100220032000a003c00a1
:10290000e4c15100834f51002500320083c1e8002b
:10291000834f510013003200e8c15100834f510032
:102920001e003a000a00370043c7b300834f51002e
:102930001b003200e6c14100834f510018003200f5
:10294000e9c15100834f510014003a0005003700df
:102950008008780010007800485c900008487800f3
:10296000410037008008780010007800680a900065
:10297000cfa2de00612bb9000498be000690be0015
:10298000390037008008780010007800680990004e
:10299000cf91de000288be00330037001180e900cd
:1029a0008008780010007800680c90000808780013
:1029b0002d0037001180e9008008780010027800af
:1029c000cfa2de00612bb900049cbe000694be00bd
:1029d00078009000808141006304980081c7b300b3
:1029e000080078002afb07001f0037001180e9006b
:1029f00080087800100578006a049800d80c9000d0
:102a00000900e00004003d000a0078001afb0700fe
:102a10008004780007003700090178008000eb008f
:102a20000a007800f7fa07000000e0000100320019
:102a30008a045000190c98000b00370078009000b1
:102a40008271780006003700780090008081410094
:102a50000204e00001003a0052c2b300824978004b
:102a60000000e800700498000000eb004f057800bb
:082a70004f04be000000060047
:020000040000fa
:102a7800504900004e3a000020520000413000004a
:102a88000a0d000000440000696700006974000036
:102a98006172000065200000756e0000207400005f
:102aa80061730000746f0000207000006572000000
:102ab80020720000696300006f6e00006669000004
:102ac80067750000726100007265000020690000ef
:102ad8006c200000746900006d650000722e000013
:102ae8000a0d000000560000616c00006f720000c3
:102af8006920000064690000206400006566000029
:102b0800617500006c7400003a200000505200000b
:102b1800312000003d2000002575000020650000e0
:102b280020540000314300004f4e0000626900004d
:102b3800747300002e540000434b000050530000f3
:102b4800203d000020250000752e00000a0d000021
:102b580000560000616c00006f72000069200000e0
:102b6800636f000072720000656e000074690000f7
:102b78003a20000050520000312000003d200000a3
:102b88002575000020650000205400003143000036
:102b98004f4e000062690000747300002e5400005c
:102ba800434b000050530000203d0000202500004a
:102bb800752e00000a0d0000004c0000276500007b
:102bc80071750000617a0000696f00006e65000091
:102bd8003a200000312f0000283400003030000077
:102be8003030000030300000302f00005443000027
:102bf8004b500000532900002a50000052310000b9
:102c0800203d000020280000312f00003c66000015
:102c18007265000071750000656e00007a61000041
:102c2800206400006573000069640000657200009c
:102c380061740000613e0000292f0000320a000084
:102c48000d000000544300004b500000533c0000ae
:102c5800313a0000303e00003a200000546900007c
:102c68006d65000072200000496e0000707500005c
:102c780074200000436c00006f6300006b200000ac
:102c88005072000065730000636100006c6500000d
:102c980020530000656c000065630000742000008c
:102ca80062690000747300000a0d00000033000020
:102cb800203d0000203100003a3200003536000087
:102cc800207000007265000073630000616c0000f2
:102cd80065200000766100006c750000650a000040
:102ce8000d000000322000003d200000313a0000b5
:102cf8003634000020700000726500007363000025
:102d0800616c000065200000766100006c750000b1
:102d1800650a00000d000000312000003d20000081
:102d2800313a00003820000070720000657300001e
:102d3800636100006c65000020760000616c000093
:102d4800756500000a0d000000300000203d0000fd
:102d5800203100003a310000207000007265000048
:102d680073630000616c000065200000766100005c
:102d78006c750000650a00000d0000000a0d0000d7
:102d88004469000067690000746100007265000012
:102d98002069000020760000616c00006f7200005e
:102da8006920000064650000692000007265000069
:102db8006769000073740000726900002050000009
:102dc800523100002065000020540000314300000b
:102dd8004f4e000062690000747300002e5400001a
:102de800434b000050530000206f0000206c00008f
:102df8006173000063690000617200006c69000083
:102e080020760000756f00007469000020700000d3
:102e180065720000206e00006f6e0000206d0000db
:102e28006f64000069660000696300006172000059
:102e38006c6900002e0a00000d00000050520000ce
:102e4800312000003d2000000045000052520000e3
:102e58004f520000453a0000206900006d6d0000e7
:102e6800657400007465000072650000207500003c
:102e78006e200000766100006c6f00007265000033
:102e8800206d0000696e00006f7200006520000070
:102e98006f20000075670000756100006c65000018
:102ea8002061000020250000750a00000d000000c8
:102eb80054310000434f00004e6200006974000066
:102ec800732e0000544300004b50000053200000b4
:102ed8003d200000000a00000d500000494e00008f
:102ee8003a20000052410000300a00000d000000a6
:020000040000fa
:102ef8000000fa000f00070038000700c05329003f
:102f0800801f780061f907008f87e9007054290055
:102f1800801f78005df907008f87e9008560a900a8
:102f28009560a800c002a900c402a900fa00070021
:102f3800ffff37000000fa0090022000303a8800b6
:102f4800213a8000f0f32f0000806000203a8800ca
:102f5800213a800000fe2f0000806000203a88009f
:102f68004827ef0040a7a900120020008007200092
:102f7800a109200033742000804978008149780035
:102f880082497800120020006004200071052000aa
:102f980023742000804978008149780082497800ac
:102fa80000000000113a80000000270080806000c7
:102fb80000002100808f5000faff3a000000000056
:102fc800113a800000022000008060000000e0004c
:102fd800fbff32000080fa00000006000000fa0043
:102fe8000080eb0060198800c862a900c842a800e8
:102ff8002135800000fe2f00008060000010a00036
:103008002035880011368000f00f2e008080600087
:103018000030200001007000103688002002a9004e
:103028000111800090ff2f000080600000118800cf
:1030380020a2a9002062a900e00720004011880012
:1030480021e2a8002342a80010002000b048880010
:103058000080fa00000006000200fa00004f780025
:1030680000000000111180000010200000806000a6
:103078000000e000fbff32008580a9001e00fb0075
:10308800201188000080fa00000006000000fa0005
:103098000500370010118000620060000000e000a9
:1030a800010032002222a900101180006100600096
:1030b8000000e000f7ff3200301180000040780087
:1030c8000080fa00000006000800fa0020079800b7
:1030d800310798000000eb00000f7800030037006c
:1030e800000000000100370000000000e7ff0700b3
:1030f800204798002e409000ed4f500029003a00dc
:10310800d0438000c0009000d04380006000900051
:10311800808f500007003100d0438000c00090002d
:103128002e419000824878008100e8004100980014
:1031380004003700d14380002e4090000000fb00bf
:103148005bf60700d0438000c0009000d0438000a9
:1031580060009000808f500007003100d04380004d
:10316800c0009000a2c0b300824878008100e80047
:103178004100980004003700d043800080007800a8
:10318800a00020004af607002e0090001e00400014
:103198008040eb00014878001e0078000080fa00ab
:1031a80000000600ae409000f0c7b30080cf50008a
:1031b800030032002e409000e84f500039003a00da
:1031c8001e0078000000e00034003200d043800088
:1031d800c0009000d043800060009000808f5000b5
:1031e80007003100d0438000c00090002e419000bd
:1031f800824878008100e800410098000400370008
:10320800d14380002e4090000000fb0028f6070004
:10321800d0438000c0009000d04380006000900040
:10322800808f500007003100d0438000c00090001c
:1032380002c2b300824878008100e800410098008b
:1032480004003700d043800080007800000220008e
:1032580017f60700d0438000c0009000d0438000dc
:1032680060009000808f500007003100d04380003c
:10327800c00090002e419000824878008100e8004c
:103288004100980004003700d14380002e40900090
:103298000000fb0006f607001e0fe9000000000012
:1032a80092ff37002e409000ff4f50008cff3400f3
:1032b8003e0090009e0f50008bff3600d0438000e8
:1032c800c0009000d043800060009000808f5000c4
:1032d80007003100d0438000c00090002e419000cc
:1032e800824878008100e800410098000400370017
:1032f800d14380002e4090000000fb00ecf5070051
:103308002e0090001e004000ae409000014878005a
:103318001e0fe80075ff37000000fa0005e1a9005c
:103328000421a90004c1a90021088000000320008d
:1033380001007000200888000021ef000080eb00e9
:10334800100888008460a9009460a80005e1a8001e
:083358000080fa0000000600ed
:020000040000fa
:103360001609000002000000020000000100000039
:1033700000080000880000000200000001000000ba
:103380000026080027082600082608002608260030
:103390000816080000000000000000000000000007
:1033a000000000000000000000000000000000001d
:1033b0000002080001014e00084f08004e084e00b0
:1033c000084e08004e083e00080000000000000003
:1033d00000000000000000000000000000000000ed
:1033e00000000000000002000802020076087700da
:1033f000087608007608760008760800660800005f
:1034000000000000000000000000000000000000bc
:10341000000000000000000000000000000828007c
:10342000085008000000000000000000000000003c
:103430000000000018090000020000000000000069
:103440001a09000002000000020000000400000051
:103450000e090000040000000000000088080000c1
:103460004a000000020000003031320033343500e1
:10347000363738003961620063646500666768004a
:10348000696a6b006c6d6e006f707100727374000e
:103490007576770078797a00000000002115110018
:1034a0000e0d0c000b0b0a000a090900090909009e
:1034b00008080800080808000807070007070700b1
:1034c00007070700070707000707000012090000a9
:1034d0000400000000000000d208000022000000ec
:1034e0000200000030313200333435003637380006
:1034f0003941420043444500460030003132330038
:10350000343536003738390061626300646566001f
:10351000000000001c090000020000000000000084
:10352000f40800001a00000002000000686a6c0045
:10353000747a4c0000000100000200000400080042
:1035400000100000000020002b2d230030000000a0
:043550000000000077
:020000040000fa
:0200000401f009
:04000c008000000070
:020000040000fa
:0200000401f009
:040010006700000085
:020000040000fa
:0200000401f009
:040014005f00000089
:00000001FF
